:100000000C94C4000C94E3000C94E3000C94E30003
:100010000C94E3000C94E3000C94E3000C94E300D4
:100020000C94E3000C94E3000C94E3000C94E300C4
:100030000C94E3000C94E3000C94E3000C94E300B4
:100040000C944E160C94E3000C94E3000C94E30023
:100050000C9437160C945A100C94E3000C94E300A3
:100060000C94E3000C94BA100C94E3000C94AD10C3
:100070000C94E3000C94E3000C94E3000C94E30074
:100080000C94EC400C94E3000C94E3000C94E3001B
:100090000C94E3000C94E3004920616D20616E2014
:1000A00041565220526176656E204A61636B6461ED
:1000B000772070726574656E64696E6720746F2056
:1000C000626520616E204554525832205A69676239
:1000D0006565206D6F64756C652E0D0A25730D0ABC
:1000E0000045786370656374656420466F726D6166
:1000F000743A2076616C75653D64642E6D6D2E7961
:10010000790A004E6F742079657420696D706C6592
:100110006D656E7465640A00457863706563746527
:100120006420466F726D61743A2076616C75653D2E
:1001300068683A6D6D0A004E6F74207965742069A5
:100140006D706C656D656E7465640A00554341534E
:10015000543A303032314544303030303034363932
:1001600039443D534520300D0A0055434153543A1C
:100170003030323145443030303030343639394423
:100180003D534520310D0A0011241FBECFEFD0E2B0
:10019000DEBFCDBF14E0A0E0B1E0E0EFFBEA00E09D
:1001A0000BBF02C007900D92AE34B107D9F71EE124
:1001B000AEE4B4E001C01D92A435B107E1F70E949E
:1001C0008C0F0C94F6550C940000CF93DF93BC0178
:1001D0008230910510F462E070E0A0914C1EB09165
:1001E0004D1EED01E0E0F0E040E050E021C08881EC
:1001F00099818617970769F48A819B81309719F056
:100200009383828304C090934D1E80934C1EFE0105
:1002100034C06817790738F44115510519F084176F
:10022000950708F4AC01FE018A819B819C01E901DC
:100230002097E9F641155105A9F1CA01861B970BD4
:10024000049708F4BA01E0E0F0E02AC08D919C9197
:10025000119784179507F9F46417750781F41296BE
:100260008D919C911397309719F09383828304C0EA
:1002700090934D1E80934C1EFD0132964CC0CA01D6
:10028000861B970BFD01E80FF91F6193719302978D
:100290008D939C9340C0FD01828193819C01D90183
:1002A0001097A1F680914A1E90914B1E892B41F424
:1002B000809146049091470490934B1E80934A1E70
:1002C00040914804509149044115510541F44DB7FE
:1002D0005EB78091440490914504481B590B2091CE
:1002E0004A1E30914B1ECA01821B930B861797073B
:1002F00080F0AB014E5F5F4F8417950750F0420FBF
:10030000531F50934B1E40934A1EF9016193719302
:1003100002C0E0E0F0E0CF01DF91CF910895CF93EC
:10032000DF93009709F450C0EC0122971B821A82D8
:10033000A0914C1EB0914D1E109709F140E050E085
:10034000AC17BD0708F1BB83AA83FE01219131914F
:10035000E20FF31FAE17BF0779F48D919C911197AF
:10036000280F391F2E5F3F4F3983288312968D91B6
:100370009C9113979B838A834115510571F4D09307
:100380004D1EC0934C1E20C012968D919C911397C8
:10039000AD01009711F0DC01D3CFFA01D383C28302
:1003A00021913191E20FF31FCE17DF0769F48881A5
:1003B0009981280F391F2E5F3F4FFA013183208327
:1003C0008A819B8193838283DF91CF910895A0E0FE
:1003D000B0E0EDEEF1E00C94C755EC01A880B980D7
:1003E000CA80DB80A114B104C104D10441F484E2C9
:1003F000A82E89EDB82E8BE5C82E87E0D82EC60131
:10040000B5012DE133EF41E050E00E94A45527EA09
:1004100031E440E050E00E9439557B018C01C60177
:10042000B5012DE133EF41E050E00E94A455CA012F
:10043000B9012CEE34EF4FEF5FEF0E9439556E0D8E
:100440007F1D801F911F97FF04C061507040804046
:100450009048688379838A839B839B013F77C90196
:10046000CDB7DEB7EAE00C94E3550E94E7010895AA
:100470008AE494E00E94E7010895A0E0B0E0809350
:100480004A0490934B04A0934C04B0934D040895F8
:10049000FC0188279927E89421912032E9F329303B
:1004A00010F02E30C8F32B3241F02D3239F468941D
:1004B00004C00E94E702820F911D219120532A302F
:1004C000C0F31EF4909581959F4F0895FC01415013
:1004D000504030F001900616D1F73197CF010895C2
:1004E000882799270895FB01DC0104C08D910190B4
:1004F000801921F441505040C8F7881B990B08958A
:10050000FB01DC0102C001900D9241505040D8F730
:1005100008956817790768F4FB01DC01E40FF51F03
:10052000A40FB51F02C002900E9241505040D8F760
:1005300008950C948002DC0101C06D93415050403D
:10054000E0F70895FC018191861721F08823D9F7FF
:10055000992708953197CF010895FB01DC018D9112
:10056000019080190110D9F3990B0895FB01DC016A
:1005700001900D920020E1F70895FB01DC0141504C
:10058000504030F08D910190801919F40020B9F796
:10059000881B990B0895A0E0B0E0E1EDF2E00C9427
:1005A000C9557C01EB018A01690109C0CE01219680
:1005B000F6010995F70181937F0101501040011563
:1005C0001105A1F7CDB7DEB7E8E00C94E5557AE068
:1005D000979F902D879F802D910D11240895A0E065
:1005E000B0E0E5EFF2E00C94CF55FE013596619155
:1005F0007191AF018091501E9091511E0E94A503F0
:100600002096E2E00C94EB55A0E0B0E0EAE0F3E0E5
:100610000C94CF55FE01359661917191A091501EB9
:10062000B091511E13968C911397886013968C93FA
:10063000AF018091501E9091511E0E94A503E09140
:10064000501EF091511E2381277F23832096E2E0E4
:100650000C94EB550F931F93CF93DF938C01E09194
:10066000501EF091511E838181FF21C0C0E0D0E077
:100670000DC0E091501EF091511E20853185BF01C3
:10068000F9010995892B11F0CFEFDFEFF801819186
:100690008F01882371F7E091501EF091511E208543
:1006A0003185BF018AE0F9010995892B11F0CFEF5F
:1006B000DFEFCE01DF91CF911F910F910895AEE052
:1006C000B0E0E5E6F3E00C94CD550D891E8986E097
:1006D0008C831A8309838FEF9FE79E838D83CE01DE
:1006E0004996AC016F89788DCE0101960E94A503D1
:1006F0002F813885020F131FF80110822E96E4E037
:100700000C94E955AEE0B0E0E8E8F3E00C94CD5588
:100710000D891E898EE08C831A8309838FEF9FE7F2
:100720009E838D83CE014996AC016F89788DCE0171
:1007300001960E94A5032F813885020F131FF8012F
:1007400010822E96E4E00C94E955ABE0B0E0EBEAC1
:10075000F3E00C94BF553C012B015A01FC011782B8
:100760001682838181FD03C06FEF7FEFC8C19AE0DD
:10077000892E1E010894211C311CF3012381F201F2
:1007800023FD859123FF81912F01882309F4B4C1B2
:10079000853239F423FD859123FF81912F01853224
:1007A00029F4B30190E00E949A05E7CF982FDD2449
:1007B000CC249924FFE1FD15D0F09B3269F09C32E6
:1007C00028F4903259F0933291F40EC09D3249F0E2
:1007D000903369F441E024C052E0D52A84E0D82A5D
:1007E00028C098E0D92A25C0E0E1DE2A22C0D7FC43
:1007F00029C0892F80538A3070F4D6FE05C0989C9A
:10080000902C1124980E15C0C89CC02C1124C80E21
:10081000F0E2DF2A0EC09E3229F4D6FC6DC140E41E
:10082000D42A07C09C3619F450E8D52A02C098365D
:1008300049F4F20123FD959123FF91912F01992312
:1008400009F0B8CF892F8554833018F08052833057
:1008500038F444E050E0A40EB51E5FE359830FC0A6
:10086000933631F0933779F0933509F056C020C0B4
:10087000F5018081898342E050E0A40EB51E71012C
:1008800001E010E012C0F501E080F180D6FC03C069
:100890006FEF7FEF02C0692D70E042E050E0A40EE0
:1008A000B51EC7010E948F058C015FE7D52214C0D9
:1008B000F501E080F180D6FC03C06FEF7FEF02C04E
:1008C000692D70E042E050E0A40EB51EC7010E9401
:1008D00084058C0150E8D52AD3FE07C01AC0B301A5
:1008E00080E290E00E949A05CA948C2D90E008174F
:1008F0001907A8F30EC0F701D7FC8591D7FE8191A7
:100900007F01B30190E00E949A05C110CA94015082
:1009100010400115110579F7ECC0943611F09936A5
:1009200071F5D7FE08C0F501E080F18002811381E6
:1009300044E050E00AC0F501808191817C010027EC
:10094000F7FC0095102F42E050E0A40EB51E5FE6C4
:10095000D52217FF0AC010950095F094E094E11C91
:10096000F11C011D111D80E8D82A2AE030E0A10108
:10097000C801B7010E94C605F82EF21840C095378D
:1009800029F41D2D1F7E2AE030E01DC01D2D197F8A
:100990009F3661F0903720F4983509F0ADC00FC054
:1009A000903739F0983709F0A7C004C028E030E04C
:1009B0000AC0106114FD146020E130E004C014FD91
:1009C000166020E132E017FF08C0F50160817181F7
:1009D0008281938144E050E008C0F50180819181DB
:1009E000BC0180E090E042E050E0A40EB51EA10101
:1009F0000E94C605F82EF2188FE7D82ED122D6FE17
:100A00000BC05EEFD522F91438F4D4FE07C0D2FC37
:100A100005C08FEED82202C01F2D01C0192DD4FEB3
:100A20000DC0FE01EF0DF11D8081803319F499EEA8
:100A3000D92208C01F5FD2FE05C003C08D2D867865
:100A400009F01F5F0D2DD3FC14C0D0FE0FC01C1584
:100A500010F09F2C0BC09F2C9C0C911A1C2D06C0D3
:100A6000B30180E290E00E949A051F5F1C15C0F35D
:100A700004C01C1510F4C11A01C0CC2404FF10C01E
:100A8000B30180E390E00E949A0502FF1EC001FDC1
:100A900003C088E790E002C088E590E0B3010CC095
:100AA000802F867891F001FF02C08BE201C080E2C6
:100AB000D7FC8DE2B30190E00E949A0506C0B30115
:100AC00080E390E00E949A059A94F914C0F3FA9496
:100AD000F101EF0DF11DB301808190E00E949A05B4
:100AE000FF20A9F706C0B30180E290E00E949A05BA
:100AF000CA94CC20C1F741CEF30166817781CB0146
:100B00002B96E2E10C94DB55FC010590615070409E
:100B10000110D8F7809590958E0F9F1F0895FC01C6
:100B20006150704001900110D8F7809590958E0F1C
:100B30009F1F08950F931F93CF93DF938C01EB01B9
:100B40008B8181FF1BC082FF0DC02E813F818C8174
:100B50009D812817390764F4E881F9810193F983AD
:100B6000E88306C0E885F985802F0995892B31F443
:100B70008E819F8101969F838E8302C00FEF1FEFAE
:100B8000C801DF91CF911F910F910895FA01AA2713
:100B9000283051F1203181F1E8946F936E7F6E5FC0
:100BA0007F4F8F4F9F4FAF4FB1E03ED0B4E03CD06E
:100BB000670F781F891F9A1FA11D680F791F8A1F51
:100BC000911DA11D6A0F711D811D911DA11D20D0B8
:100BD00009F468943F912AE0269F11243019305D72
:100BE0003193DEF6CF010895462F4770405D419363
:100BF000B3E00FD0C9F7F6CF462F4F70405D4A33B0
:100C000018F0495D31FD4052419302D0A9F7EACF77
:100C1000B4E0A6959795879577956795BA95C9F7A6
:100C200000976105710508959B01AC010A2E069499
:100C30005795479537952795BA95C9F7620F731F52
:100C4000841F951FA01D08952F923F924F925F928F
:100C50006F927F928F929F92AF92BF92CF92DF92CC
:100C6000EF92FF920F931F93DF93CF93CDB7DEB731
:100C7000CF5FD0400FB6F894DEBF0FBECDBF5C0192
:100C8000FC0180819181009729F0853B910509F055
:100C90003DC11AC040E86EE474E087ED94E00E9424
:100CA0009C0D64EA77E080E00E940A115D9862EE94
:100CB00074E08EEC94E00E94910D85EB90E0F501DC
:100CC0009183808381E026C1683829F480E091E037
:100CD0000E942A03F2CF663881F700E010E07E011F
:100CE0000894E11CF11C4AE3C42E41E0D42E3DE3FC
:100CF000832E31E0932E29E5622E21E0722E94E8B6
:100D0000492E91E0592E87E6282E81E0382EF4C036
:100D10000E3F110508F0E0C08D3009F0DDC087ED11
:100D200094E00E94D10D282F8A3009F0C8C00E0D22
:100D30001F1DF80110826BE171E0C7010E94AD0236
:100D40000097C9F066E271E0C7010E94AD0200970A
:100D500091F061E371E0C7010E94AD02009759F084
:100D600062E471E0C7010E94AD02009789F488E453
:100D700091E00E942A03DF92CF929F928F920E946D
:100D8000EF0200E010E00F900F900F900F90B4C0B2
:100D9000F70101900020E9F78F01015010400E1972
:100DA0001F090230110508F487C042E050E066E5F3
:100DB00071E0C7010E94BD02009709F07DC00230BA
:100DC0001105C9F26FE571E0C7010E94AD020097FD
:100DD00049F4DF92CF9288E990E09F938F930E942D
:100DE0000403CFCFA80163E671E0C7010E94BD02F2
:100DF000009729F4DF92CF923F922F92C0CF49E023
:100E000050E06AE771E0C7010E94BD02009709F057
:100E100053C0CE010A9601C00196FC0120812C32FC
:100E200019F02223C9F703C0FC011192CF01DC01A4
:100E30000D900020E9F71197A81BB90B1A161B0695
:100E4000C4F41197FC01EA0FFB1F119620812D308D
:100E500011F02A3071F41082A130B10551F0FD017A
:100E60003297E80FF91F20812D3011F02A3009F454
:100E70001082FC01319720E030E010C08E3759F429
:100E80002115310531F080818D3019F48AE081839C
:100E900002C09DE091832F5F3F4F3196818188236F
:100EA00069F7DF92CF925F924F920E94EF0284E93E
:100EB00091E00E942A0365CF7F926F925ECFF70187
:100EC000E00FF11F8DE08083C8010196F701E80F64
:100ED000F91F20838C0104C0F701E00FF11F80830C
:100EE0000F5F1F4F0F3F110539F4C050DF4F1882BD
:100EF000C050D14000E010E087ED94E00E94D10D99
:100F0000EFEF8F3F9E0709F003CFD7CEF501118297
:100F1000108283E0C150DF4F0FB6F894DEBF0FBEE2
:100F2000CDBFCF91DF911F910F91FF90EF90DF9098
:100F3000CF90BF90AF909F908F907F906F905F9079
:100F40004F903F902F9008951F93182F682F87ED93
:100F500094E00E94A40D1D3029F48091D6048F5F87
:100F60008093D6048091D604813011F41A3039F080
:100F700087ED94E00E94F70D8F37910571F460E0E2
:100F800087ED94E00E94A40D40E050E066E887EB16
:100F900092E00E94E20B1092D60481E090E01F9153
:100FA0000895CF93DF93EC0188819981892BC1F457
:100FB0000E94750F80EF92E00E946F0F89E093E02E
:100FC0000E946F0F82E293E00E946F0F8CED92E01F
:100FD0000E946F0F81E493E00E946F0F1092DC0477
:100FE0001982188283E0DF91CF910895AF92BF926A
:100FF000CF92DF92EF92FF920F931F935B018CE9E8
:1010000091E09F938F9366EBC62E61E0D62EDF9220
:10101000CF925BE5E52E51E1F52EFF92EF920E9413
:101020005F038C018AEB91E09F938F93DF92CF92C5
:10103000C701800F911F9F938F930E945F039C01B4
:10104000200F311F6EEC71E0C701820F931F0E94C9
:10105000B602F70101900020E9F73197EE19FF0978
:10106000AF01B701C5010E94900E68E270E0C501B2
:101070000E948A0E8DB79EB70C960FB6F8949EBF4D
:101080000FBE8DBF1F910F91FF90EF90DF90CF901B
:10109000BF90AF900895EF92FF920F931F937B0143
:1010A00082EE91E09F938F9386EB91E09F938F93D5
:1010B0000BE511E11F930F930E945F039C016AEF00
:1010C00071E0C801820F931F0E94B60268E270E0CF
:1010D000C7010E948A0EF80101900020E9F73197BC
:1010E000E01BF10BAF01B801C7010E94900E8DB754
:1010F0009EB706960FB6F8949EBF0FBE8DBF1F9188
:101100000F91FF90EF900895EF92FF920F931F932E
:101110007B010BE511E162E172E0C8010E94B602B9
:1011200060E070E0C7010E948A0EF8010190002083
:10113000E9F73197E01BF10BAF01B801C7010E943D
:10114000900E1F910F91FF90EF900895CF92DF9234
:10115000EF92FF920F931F93DF93CF9300D000D0B5
:101160000F92CDB7DEB78C016B010E94930E0197F1
:1011700009F58091DC04882319F06FE172E002C068
:1011800063E372E08BE591E10E94B60260E070E0FB
:10119000C6010E948A0EABE5B1E1FD01019000207D
:1011A000E9F73197EA1BFB0BAF01BD01C6010E94B5
:1011B000900E38C025E030E07E010894E11CF11C5F
:1011C000A70168E472E0C8010E948D0E892B29F105
:1011D0006EE472E0C7010E94AD02009759F477985F
:1011E0008AE691E09F938F930E94040381E08093AD
:1011F000DC0410C061E572E0C7010E94AD020097F7
:1012000061F4779A8CE491E09F938F930E9404039A
:101210001092DC040F900F9005C060EA70E0C601E8
:101220000E949F0E0F900F900F900F900F90CF91F4
:10123000DF911F910F91FF90EF90DF90CF90089575
:10124000CF92DF92EF92FF920F931F93DF93CF9392
:10125000CDB7DEB72A970FB6F894DEBF0FBECDBF6D
:101260008C016B010E94930E019719F483E091E0C9
:101270007DC029E030E07E010894E11CF11CA7014B
:1012800065E572E0C8010E948D0E892B09F46CC0DF
:10129000C7010E9448027C01CE0104960E944802C8
:1012A0008C01CE0107960E9448029C0189819927F2
:1012B00087FD9095C0970A9708F056C08A819927B4
:1012C00087FD9095C0970A9708F04EC08C819927AA
:1012D00087FD9095C0970A9708F046C08D819927A1
:1012E00087FD9095C0970A9708F03EC08F81992797
:1012F00087FD9095C0970A97B8F58885992787FD4F
:101300009095C0970A9780F52436310568F5101638
:10131000110654F50D3011053CF51E141F0424F57B
:101320000430110549F00630110531F0093011057E
:1013300019F00B30110521F48FE1E816F104A4F443
:101340000230110569F4C90183709070892B21F076
:101350009DE1E916F10444F48EE1E816F10424F469
:1013600090E2E916F1042CF181EE90E09F938F93C7
:101370000BE511E11F930F930E94820360E070E080
:10138000C6010E948A0EF80101900020E9F731970A
:10139000E01BF10BAF01B801C6010E94900E60EA9C
:1013A00070E0C6010E949F0E0F900F900F900F905B
:1013B00014C0FF92EF921F930F933F932F938BE5EF
:1013C00092E09F938F930E94EF028DB79EB708968D
:1013D0000FB6F8949EBF0FBE8DBF2A960FB6F89435
:1013E000DEBF0FBECDBFCF91DF911F910F91FF9058
:1013F000EF90DF90CF900895CF92DF92EF92FF921F
:101400000F931F93DF93CF93CDB7DEB72A970FB615
:10141000F894DEBF0FBECDBF8C016B010E94930E0E
:10142000019719F487E391E051C026E030E07E0196
:101430000894E11CF11CA70165E572E0C8010E9457
:101440008D0E892B09F440C0C7010E9448028C010F
:10145000CE0104960E9448029C018981992787FD4C
:101460009095C0970A9780F58A81992787FD909576
:10147000C0970A9748F58C81992787FD9095C0976A
:101480000A9710F58D81992787FD9095C0970A9747
:10149000D8F408311105C0F437FD16C02C333105DE
:1014A0009CF43F932F931F930F9386E892E09F93B2
:1014B0008F930E94EF028DB79EB706960FB6F894F1
:1014C0009EBF0FBE8DBF24C088E191E09F938F9394
:1014D0000BE511E11F930F930E94820360E070E01F
:1014E000C6010E948A0EF80101900020E9F73197A9
:1014F000E01BF10BAF01B801C6010E94900E60EA3B
:1015000070E0C6010E949F0E0F900F900F900F90F9
:101510002A960FB6F894DEBF0FBECDBFCF91DF91F4
:101520001F910F91FF90EF90DF90CF9008958091E1
:10153000E9048F5F8093E904815008951F93CF934E
:10154000DF93EC01162F8E8180FF1CC0EA81FB81A6
:101550003097C1F0D093E004C093DF0482E08E8323
:10156000CE0104960995992787FD909502970297D9
:1015700010F0133829F4BE01CE010E94C60A02C041
:1015800081E08E83DF91CF911F910895CF92DF92FA
:10159000EF92FF920F931F93CF93DF93EC017B01A8
:1015A000C090DF04D090E0040091DD041091DE04CF
:1015B000F80103C00190F081E02DEC17FD0719F050
:1015C0003097C1F746C0209709F443C08E81882325
:1015D00009F11E820BC0C017D10729F0AE0167E8E0
:1015E000C8010E949E0AF8010081118101151105B0
:1015F00091F7EA81FB81309769F0CE15DF0551F054
:10160000D093E004C093DF0440E050E063E8CE01F3
:1016100004960995E091DD04F091DE04CE17DF0712
:1016200091F4888199819093DE048093DD040DC04C
:10163000808191818C179D0729F4888199819183FC
:10164000808303C0FC01309799F7D092E004C092E8
:10165000DF04DF91CF911F910F91FF90EF90DF900A
:10166000CF9008958AE88093E9041092EB041092D9
:10167000EA041092DE041092DD041092E00410924D
:10168000DF0408951F93CF93DF9380918C05882307
:10169000C1F010928C05C091DD04D091DE0411E000
:1016A0000EC08F81882341F01E831F8240E050E0EE
:1016B00062E8CE010E949E0A0990D881C02D209731
:1016C00081F72091EA04222309F470C08091EB0491
:1016D00090E0FC01EE0FFF1FEE0FFF1FE80FF91F58
:1016E000E451FB4F60816093E80441815281509343
:1016F000E7044093E6040380F481E02DF093E504D1
:10170000E093E40401968F7190708093EB04215074
:101710002093EA04309709F042C08091DD04909153
:10172000DE049093E3048093E20411E031C08091E1
:101730008C058823B9F010928C05C091DD04D091FE
:10174000DE040EC08F81882341F01E831F8240E09B
:1017500050E062E8CE010E949E0A0990D881C02D17
:10176000209781F74091E6045091E7046091E804E6
:101770008091E2049091E3040E949E0AE091E204C9
:10178000F091E304808191819093E3048093E204DB
:101790008091E2049091E304892B49F607C06138F7
:1017A00011F481E08683CF010E949E0A80918C050E
:1017B0002091EA0430E0280F311DC901DF91CF915B
:1017C0001F910895DC012091EA04203219F421E0F0
:1017D00030E01AC08091EB04820F8F718093E10496
:1017E00090E0FC01EE0FFF1FEE0FFF1FE80FF91F47
:1017F000E451FB4F608352834183B483A3832F5F03
:101800002093EA0420E030E0C90108950F931F936C
:101810000091DF041091E0040E949E0A1093E004FE
:101820000093DF041F910F910895DC014091DD04C6
:101830005091DE04CA01FC0103C00190F081E02D4B
:10184000EA17FB07B9F03097C1F74C9311965C93F8
:101850001197B093DE04A093DD0481E016968C937B
:10186000169715961C921E921497AB0161E8CD0154
:101870000E94060C0895FC01009741F0868181507A
:10188000823020F481E0878380938C05089520E0E6
:1018900030E0FC0186819781892B11F421E030E052
:1018A000C9010895FC012281338180819181280F33
:1018B000391FC901089520918D0530918E0521159C
:1018C000310511F021E030E0C901089580918D05C6
:1018D00090918E05892B29F41092900510928F0516
:1018E00008950E943510BC01E0918D05F0918E05A0
:1018F0004281538180819181480F591F461B570BAC
:101900000CC02281338180819181280F391F261BD1
:10191000370B2417350708F4A9010480F581E02D61
:10192000309779F7460F571F5093900540938F05D6
:101930000895CF93DF93EC01E0918D05F0918E0532
:101940008E179F0741F48C819D8190938E05809323
:101950008D0514C0FC01309731F0848195818C177E
:101960009D07C1F707C01D821C821F821E82DF9166
:10197000CF9108958C819D81958384830E94660C0C
:10198000F2CF85E593E00E943B0C0895EF92FF9221
:101990000F931F93CF93DF937C01FC018081918192
:1019A000009729F08A35910509F06DC00BC010929F
:1019B0008E0510928D058AE590E0F7019183808372
:1019C00081E065C0673849F59A01E0918D05F09195
:1019D0008E0503C00480F581E02D309741F38681A8
:1019E000978182179307B1F3E0938D05F0938E05ED
:1019F0000FC016968D919C9117978217930711F03F
:101A0000FD0106C014968D919C9115979583848352
:101A1000A481B581109769F7CECF623861F6C09185
:101A20008D05D0918E0500E010E02AC0CE010E9405
:101A30006918892B01F1AE0168E88E819F810E94AF
:101A4000E20B892BA1F41F821E828C819D810115DE
:101A5000110521F0F8019583848304C090938E05CD
:101A600080938D051D821C820E94660CD8CF85E56F
:101A700093E00E943B0C8E018C819D819C01E901C9
:101A80002097A1F698CFF7011182108283E0DF91B1
:101A9000CF911F910F91FF90EF900895CF93DF9317
:101AA000EC0185E593E00E943B0C8E819F81892BA0
:101AB00069F0E0918D05F0918E0506C0EC17FD07E9
:101AC000A9F00480F581E02D3097C1F78091DF0403
:101AD0009091E0049F838E8380918D0590918E0577
:101AE0009D838C83D0938E05C0938D050E94660CD8
:101AF000DF91CF9108950F931F938C010E9481185D
:101B0000C8010E944E0D1F910F9108950F931F93CE
:101B10008C010E945F18C8010E944E0D1F910F9109
:101B200008950F931F938C010E948C18C8010E9486
:101B30004E0D1F910F910895FC01718360834150F8
:101B40004283138214820895DC0113968C911397BB
:101B500012962C91129730E0482F50E014968C91F9
:101B60001497FA01E81BF109CF018223932382170E
:101B7000930719F420E030E012C0ED91FC91119729
:101B8000E40FF51F608313968C9113978F5F129665
:101B90009C911297892313968C9321E030E0C90120
:101BA0000895DC0114964C91149712965C9112974B
:101BB00013968C91139790E0642F70E0861B970B1F
:101BC000252F30E082239323892B19F42FEF3FEF49
:101BD0000CC0ED91FC911197E60FF71F80814F5FCC
:101BE000452314964C93282F30E0C9010895FC0139
:101BF000228130E02F5F3F4FC90108950F931F935B
:101C0000CF93DF938C01FC0180819181F1E08332DD
:101C10009F07C9F021E080339207A1F1892B09F0D9
:101C200070C060E070E080E294E00E94150C40E03B
:101C300050E065E88091DF049091E0040E94E20B9F
:101C400083E291E01AC081E995E00E949E18EC01C0
:101C500010C06C817D818E819F8161157105810528
:101C6000910521F0888599850E94910D0990D88170
:101C7000C02D209771F780E391E0F8019183808374
:101C800081E043C06838B9F781E995E00E949E1869
:101C9000EC0134C08C819D81AE81BF810097A1058C
:101CA000B10549F1888599850E94470C892B19F166
:101CB000EC85FD853097D9F08A819B810995892B28
:101CC000B1F08A859B850E947B1A892B61F4CE0135
:101CD0000E94D53A8A859B850E94551A688B798B1C
:101CE0008A8B9B8B04C0188A198A1A8A1B8A88855A
:101CF00099850E94860D0990D881C02D209751F6B4
:101D0000BACFF8011182108283E0DF91CF911F9149
:101D10000F9108950E94BF3B08950E94D43B0895FF
:101D20000E94103B08950E94D13A019721E030E0D3
:101D300002C0220F331F8A95E2F7C90108950E945D
:101D4000CE3A08958F929F92AF92BF92CF92DF9238
:101D5000EF92FF920F931F93DF93CF9300D000D0A9
:101D6000CDB7DEB76C015B01DC0118968D909C90BD
:101D700019971A960D911C911B9783E995E00E9483
:101D80009E187C018BC08114910409F484C0F70172
:101D900084819581DC01FD0101900020E9F73197F4
:101DA000EA1BFB0BE017F10709F075C0A801B401AD
:101DB0000E94BD02009709F06EC0C6010E94930EFA
:101DC000D70112962D913C91139728233923232B69
:101DD00009F45BC019821A821B821C82BE016F5FEC
:101DE0007F4FC6010E94DD3A892B81F181E995E0A0
:101DF0000E949E188C0184E1882E912C8C0C9D1CD5
:101E000022C0F801828193818E159F05C9F4498112
:101E10005A816B817C81D80150964D935D936D936F
:101E20007C9353971A968D919C911B970E94A41AAC
:101E3000D8015496F40180E101900D928150E1F7B0
:101E4000F8010081118101151105D9F6D701189605
:101E5000ED91FC911997309729F0B501C6010995CC
:101E6000892B09F1D7011696ED91FC911797B501D1
:101E7000C6010995D7011A96ED91FC911B973097F1
:101E800091F0B501C60109950EC065EA70E0C50183
:101E90000E94CE3A08C0F701E080F180E114F1041D
:101EA00009F071CF14C021E030E0C9010F900F900C
:101EB0000F900F90CF91DF911F910F91FF90EF90B6
:101EC000DF90CF90BF90AF909F908F90089564EA7D
:101ED00070E0C5010E94CE3A20E030E0E6CFBC01C0
:101EE00083E995E00E94A218089583E995E00E9495
:101EF0009A1882EA9EE00E94C93A60E070E08DE59F
:101F000093E00E94150C08959C01F999FECF32BD13
:101F100021BDF89A80B508950F931F93DF93CF9357
:101F2000CDB7DEB728970FB6F894DEBF0FBECDBF92
:101F300011240E945A110E9466110E94251046E049
:101F400069E180E00E94ED1080E00E9451110E9442
:101F5000521A8AB1806A8AB98DB1806C8DB95F9846
:101F60005D9A779A769A0E94320B60E070E085E580
:101F700093E00E94150C0E94261AE0918803F091CC
:101F8000890309958E010F5F1F4F88E0F8011192B8
:101F90008A95E9F724E83FE048E050E060E070E02F
:101FA000C8010E94CB02ABEFB2E1F80188E00190DA
:101FB0000D928150E1F7AE014F5F5F4F60E070E03E
:101FC0008FEE9EEB0E948214F999FECF89E090E09B
:101FD00092BD81BDF89A40B5F999FECF8AE090E0B4
:101FE00092BD81BDF89A80B5242F30E090E08095B5
:101FF00090952817390709F04AE1842F0E94211390
:10200000CE0101960E94FB160E94E21CE091C703DC
:10201000F091C8030995E091AE03F091AF030995E3
:10202000E0911004F0911104099560E070E08DEEEC
:1020300093E00E94150C8FE493E00E9450185F9A81
:102040000E94420B0E947211FBCFF8941092B600CE
:1020500016BC8DE387BD92E094BD85E085BD85B358
:1020600085BB90936E0078940895209195053091EA
:102070009605809195059091960528173907A9F73F
:10208000C90108952091C3113091C4114091C51127
:102090005091C6118091C3119091C411A091C511A6
:1020A000B091C611281739074A075B0759F7B901DC
:1020B000CA0108951F920F920FB60F920BB60F929E
:1020C00011242F933F934F935F936F937F938F933D
:1020D0009F93AF93BF93EF93FF938091950590915A
:1020E00096050196909396058093950580919705A6
:1020F0008F5F80939705809197058D37A9F4109293
:1021000097058091C3119091C411A091C511B09110
:10211000C6110196A11DB11D8093C3119093C411E6
:10212000A093C511B093C6110E945B0C892B11F0CE
:102130000E94C10CFF91EF91BF91AF919F918F9140
:102140007F916F915F914F913F912F910F900BBEB7
:102150000F900FBE0F901F9018951F920F920FB601
:102160000F92112410927D03669A0F900FBE0F906C
:102170001F9018951F920F920FB60F920BB60F92E9
:1021800011242F933F934F935F936F937F938F937C
:102190009F93AF93BF93EF93FF93E0917303F091FD
:1021A00074038081E0917E03F0917F03309709F002
:1021B00009954D9AFF91EF91BF91AF919F918F91AA
:1021C0007F916F915F914F913F912F910F900BBE37
:1021D0000F900FBE0F901F90189590E02DE030E00B
:1021E000829FF001839FF00D929FF00D1124ED5816
:1021F000FC4FA281B3811C92A481B5816C93A6810E
:10220000B78188ED8C93A085B1854C931286148696
:102210001386089590E02DE030E0829FF001839FC7
:10222000F00D929FF00D1124ED58FC4F74876387D9
:102230000895482F8A30C9F48091980590E02DE0E8
:1022400030E0829FF001839FF00D929FF00D1124EA
:10225000ED58FC4F81E08287A081B1818DE08C93A5
:102260003A9680818823E9F702C08D30B9F08091D9
:10227000980590E02DE030E0829FF001839FF00D03
:10228000929FF00D1124ED58FC4F81E08287A081D0
:10229000B1814C933A9680818823E9F780E090E001
:1022A00008958093980585E693E09093511E80935E
:1022B000501E089584B7877F84BF88E10FB6F894D5
:1022C00080936000109260000FBE08952FE088E1B7
:1022D00090E00FB6F894A895809360000FBE20930D
:1022E00060000895A89508958091DA058091DA0537
:1022F00090E0089540E06FE181E00E948D1581300B
:1023000021F020E030E0813111F421E030E0C9011A
:10231000089540E06FE181E00E948D15982F815172
:102320008230B8F39F31A9F3913099F3923089F359
:102330000895809155128823A9F08091DC058823A7
:10234000A1F440E06FE181E00E948D15982F81514A
:10235000823058F09F3149F0913039F0923029F0B5
:102360001092551281E090E0089581E08093DE059F
:10237000F9CF1C9B02C080E1089540E06FE085E04A
:102380000E948D1508950F931F93182F883059F0D0
:10239000863049F0893039F0863129F0893119F0D9
:1023A00022E430E04DC01C9B03C024E430E048C070
:1023B0000E94891140E06FE181E00E948D15082F95
:1023C000181709F43BC0183061F42C988DE090E0A8
:1023D0000197F1F723E040E06FE182E00E94A01551
:1023E0001FC0193121F4863181F429E005C016316E
:1023F00061F4893151F426E040E06FE182E00E940F
:10240000A01583E090E00197F1F7212F40E06FE104
:1024100082E00E94A015083019F489E691E002C01C
:1024200083E090E00197F1F740E06FE181E00E94E6
:102430008D15811719F023E430E002C020E430E06C
:10244000C9011F910F91089580915412882339F08A
:102450002C988FEA92E00197F1F7109254120E94A3
:10246000891186E10E94C31181E08093551208957D
:102470008091DD05882321F00E9424121092DD0551
:102480008091DE05882321F0109255121092DE050E
:102490001092DC050895CF93DF93FC01AB0181E03E
:1024A0008093DC0580919F129091A012A091A112BF
:1024B000B091A2120196A11DB11D80939F1290931D
:1024C000A012A093A112B093A212862F8E5F87FF55
:1024D00003C0CFEFDFEF08C02FED35E0BF01C9012A
:1024E0000E948002C0E0D0E00E943812CE01DF914D
:1024F000CF91089580915512882351F48091DC0585
:10250000882321F081E08093DD0502C00E9424121F
:1025100081E090E008958091DC05882341F480916A
:102520005512882321F40E947A120E94991181E0A9
:1025300090E00895282F1C9908C0803108F02FE002
:1025400040E06FE085E00E94A01508950F931F936F
:10255000CF93DF93182F81E08093DC050091551213
:1025600080915412882319F02C98109254120E94D2
:10257000891189E10E94C31186E00E94461B892BC4
:1025800019F4C0E0D0E009C00E94B911C82F86E05C
:102590000E94461B81500E949A122C9A2C981E5F12
:1025A000612F8FED95E00E940B160E94891145E086
:1025B00060EE82E00E948D15182F86E00E94461B77
:1025C000892B19F08C2F0E949A12002311F00E947F
:1025D000241280915512882311F40E9424120E9423
:1025E0003812113011F410E015C0133099F48091B5
:1025F000971290919812A0919912B0919A12019607
:10260000A11DB11D8093971290939812A0939912D7
:10261000B0939A12812F90E0DF91CF911F910F918B
:102620000895CF93DF93EB010E944B129C0100971A
:1026300021F4CE010E94A6129C01C901DF91CF9125
:1026400008951F93182F0E9489111093DB05212FE5
:1026500040E06FE188E00E94A0151F9108958091ED
:102660005512882341F080E893E00E943B0C81E002
:102670008093DA0510C08091D01190E0FC01F695AE
:10268000FE2FEE27F795E795880F991FE80FF91FA2
:10269000EF52FE4E108281E090E00895CF93DF93D9
:1026A000DC012091D011822F90E0FC01F695FE2FE5
:1026B000EE27F795E795880F991FE80FF91FEF525E
:1026C000FE4E4081442309F4E8C0809155128823CE
:1026D00009F4E3C047FF23C0822F90E0FC01F69588
:1026E000FE2FEE27F795E795880F991FE80FF91F42
:1026F000EF52FE4E108280918F1290919012A09115
:102700009112B09192120196A11DB11D80938F126A
:1027100090939012A0939112B0939212BEC0433046
:1027200018F5822F90E0FC01F695FE2FEE27F79525
:10273000E795880F991FE80FF91FEF52FE4E1082A0
:1027400080918B1290918C12A0918D12B0918E126B
:102750000196A11DB11D80938B1290938C12A093B2
:102760008D12B0938E1299C0C42FD0E022976C17AF
:102770007D0718F5822F90E0FC01F695FE2FEE27DD
:10278000F795E795880F991FE80FF91FEF52FE4E56
:1027900010828091871290918812A0918912B09135
:1027A0008A120196A11DB11D809387129093881201
:1027B000A0938912B0938A1270C0822F90E09C017E
:1027C0003695322F222737952795880F991F280F86
:1027D000391F2E523E4E50E0B901CD010E948002B9
:1027E0002091D011822F90E0FC01F695FE2FEE276C
:1027F000F795E795880F991FE80FF91FEF5AFD4EDF
:1028000080818093C711822F90E0FC01F695FE2F06
:10281000EE27F795E795880F991FE80FF91FEF52FC
:10282000FE4E10821092D01180E090E0FC01F695EF
:10283000FE2FEE27F795E795880F991FE80FF91FF0
:10284000EF52FE4E8081882311F00E942F1387E003
:102850000E9457158093C811992787FD9095BC0158
:1028600084E00E943B1B6091C71170E083E00E94EE
:102870003B1B8091A3129091A412A091A512B0913C
:10288000A6120196A11DB11D8093A3129093A412CC
:10289000A093A512B093A61202C0C0E0D0E0CE0172
:1028A000DF91CF910895CF93DF93EC0188819981D7
:1028B000009721F086599440F9F405C086E994E028
:1028C0009983888302C0623811F081E018C01092A9
:1028D000DA050E94881B0E94FC1A60E870E00E94E2
:1028E0004E131816190654F70E94F71AE091CB03FD
:1028F000F091CC030995E2CF1982188283E0DF9131
:10290000CF910895AF92BF92CF92DF92EF92FF9254
:102910000F931F93CF93DF93192F062FF72EEA0102
:10292000682F82E20E947215612F83E20E94721565
:10293000602F80E20E9472156F2D81E20E94721555
:102940002097D1F18E010F5F1F4F68818BE20E94AB
:10295000721568010894C11CD11C69818AE20E9429
:10296000721556010894A11CB11CF801618189E21D
:102970000E94721575010894E11CF11CF601618139
:1029800088E20E94721587010F5F1F4FF501618178
:1029900087E20E947215F701618186E20E9472153A
:1029A000F801618185E20E9472150F5F1F4FF801E7
:1029B000618184E20E947215DF91CF911F910F9186
:1029C000FF90EF90DF90CF90BF90AF9008950F935E
:1029D0001F930DEF13E0C8010197F1F70E943A151C
:1029E0001092D1111092D0111092CF112D982C98D5
:1029F0008DE090E00197F1F72D9A23E040E06FE140
:102A000082E00E94A015C8010197F1F78DE10E94B4
:102A100057158EE10E9457156FE08EE00E947215E7
:102A200021E044E060EF8CE20E94A01525E041E047
:102A30006EE08CE20E94A01560E88FE20E947215A1
:102A400086E00E945715682F8DE20E94721521E0E2
:102A500047E060E885E00E94A01560E070E080E853
:102A600093E00E94150C0E94241281E090E01F91D7
:102A70000F9108951092610610926006249A259A8B
:102A800084B1876084B985B1836085B980E58CBDE8
:102A900081E08DBD83E480938100B59AEFE6F0E09C
:102AA0008081816080838081806280830895DF934C
:102AB000CF930F92CDB7DEB780689FB79983F89414
:102AC00028988EBD0DB407FEFDCF8EB51EBC0DB48B
:102AD00007FEFDCF8EB5289A99819FBF0F90CF91A9
:102AE000DF910895DF93CF930F92CDB7DEB7806C5F
:102AF0009FB79983F89428988EBD0DB407FEFDCF3B
:102B00008EB56EBD0DB407FEFDCF8EB5289A8981B6
:102B10008FBF0F90CF91DF910895FF920F931F9376
:102B2000062FF42E0E945715082310E002C01595B9
:102B30000795FA94E2F7802F1F910F91FF90089567
:102B4000EF92FF920F931F93DF93CF9300D0CDB7F7
:102B5000DEB7182F062FE42EF22E0E945715898318
:102B60009981802F8095892389832981106C8FB763
:102B70008A83F89428981EBD0DB407FEFDCF8EB54C
:102B80008F2D90E002C0880F991FEA94E2F7082386
:102B9000202B2EBD0DB407FEFDCF8EB5289A8A815D
:102BA0008FBF0F900F90CF91DF911F910F91FF90EA
:102BB000EF900895DF93CF930F92CDB7DEB7FC016E
:102BC0008FB78983F894289880E28EBD0DB407FEF4
:102BD000FDCF8EB51EBC0DB407FEFDCF9EB5908314
:102BE0001EBC0DB407FEFDCFDF0111968EB58D938F
:102BF0001EBC0DB407FEFDCF9150C1F78EB5E05855
:102C0000FF4F819381E08083289A89818FBF0F9045
:102C1000CF91DF910895DF93CF930F92CDB7DEB7B9
:102C20009C018FB78983F894289880E68EBD0DB4F7
:102C300007FEFDCF8EB56EBD0DB407FEFDCF8EB580
:102C4000F901635070E06F5F7F4F620F731F8191D6
:102C50008EBD0DB407FEFDCF8EB5E617F707B9F7A9
:102C6000289A89818FBF0F90CF91DF9108951F928D
:102C70000F920FB60F9211248F939F93809160064D
:102C800090916106019690936106809360069F91F2
:102C90008F910F900FBE0F901F9018951F920F925B
:102CA0000FB60F920BB60F9211242F933F934F93B1
:102CB0005F936F937F938F939F93AF93BF93EF93A4
:102CC000FF93DF93CF9300D0CDB7DEB78FB78A8362
:102CD000F89428988FE88EBD0DB407FEFDCF1EBC7A
:102CE0000DB407FEFDCF9EB5289A8A818FBF92FD55
:102CF00041C093FF20C081E00E9457158F718983E6
:102D00008981813149F08981863031F08981813032
:102D100019F08981863171F58091CF1122E8829F67
:102D2000C00111248F529E4E0E94DA151092CF11CD
:102D30000E942F131FC096FD1DC091FD1BC090FD6A
:102D400019C097FF17C08EE00E945715982F8FB7B4
:102D50008A83F89428988EEC8EBD0DB407FEFDCFC3
:102D60008EB59F779EBD0DB407FEFDCF8EB5289A18
:102D70008A818FBF0F900F90CF91DF91FF91EF91DC
:102D8000BF91AF919F918F917F916F915F914F9183
:102D90003F912F910F900BBE0F900FBE0F901F9081
:102DA0001895AC0120E030E0FA01E20FF31FDB01DF
:102DB000A20FB31F8C9180832F5F3F4F28303105C6
:102DC00099F70895AC0120E030E0FA01E20FF31F1B
:102DD000DB01A20FB31F90818C91981719F020E0AE
:102DE00030E007C02F5F3F4F2830310571F721E0F9
:102DF00030E0C9010895AC0120E030E0F901E95A62
:102E0000FD4EDA01A20FB31F8C9180832F5F3F4FDD
:102E10002830310599F70895E091C903F091CA036C
:102E200009950895E0911204F0911304099508950D
:102E3000E091CD03F091CE0309950895E091CF0381
:102E4000F091D0030995089580E090E008950895E9
:102E5000E0919803F091990309950895892B31F039
:102E6000E0919803F091990309950895E0919A03F0
:102E7000F0919B030995089580E090E008950F93E9
:102E80001F93DF93CF93CDB7DEB7E0970FB6F894DB
:102E9000DEBF0FBECDBF0E942A1B8C010E94FC1A10
:102EA000AE014F5F5F4F602F0E941941882309F4E4
:102EB00043C088A99801281B3109C9010E94D81A6A
:102EC000892BD1F12E81222361F18A859B853EEBEE
:102ED0008F3E930719F08F5F9F4F71F5223071F08D
:102EE00028E030E0BE01645F7F4F21503040FB019D
:102EF000E20FF31F80818F3F21F007C022E030E016
:102F0000F1CF121613068CF30CC089E10E945A1BF4
:102F100089E10E944F1B67E572E10E94E216892B4E
:102F200059F0BE016A5E7F4F88E10E945A1BE09112
:102F3000B203F091B3030995E0960FB6F894DEBFA3
:102F40000FBECDBFCF91DF911F910F910895AF922A
:102F5000BF92CF92DF92EF92FF920F931F93DF9376
:102F6000CF93CDB7DEB7E0970FB6F894DEBF0FBEB4
:102F7000CDBF6C015B01FE01319680E3DF011D9244
:102F80008A95E9F781E089831A821B828CE00E948E
:102F9000461B8C831D821F828091620689878F5F0A
:102FA0008093620603E008878FEE9EEB9B878A87FB
:102FB00089E10E944F1B6CE973E00E94E216892BA5
:102FC00031F082E08E838FEF8C878D8709C089E195
:102FD0000E944F1BBC01CE010C960E94D1160E839D
:102FE0008FEE9EEB9D8B8C8B67E572E1CE01469652
:102FF0000E94D1160E94FC1A9FA78EA70E942A1B2E
:1030000088AB7E010894E11CF11CC7010E942F438C
:10301000082F90E00E94B91A892B39F10E94091BF0
:10302000402FBC01C7010E945942E0908E03F090EE
:103030008F030E942F1B8C010E94091BB801F7010E
:103040000995C114D10489F0009719F0019769F42A
:1030500005C041E050E060E070E004C041E050E0B5
:1030600064E070E0C501F6010995E0960FB6F894AA
:10307000DEBF0FBECDBFCF91DF911F910F91FF90AB
:10308000EF90DF90CF90BF90AF9008950E94B61A56
:1030900080936206E0919803F09199030995089551
:1030A000CF93DF93EC0104C060E070E00E94150C48
:1030B000899199910097C1F7DF91CF910895FC0113
:1030C0008081918122813381820F931F918380833C
:1030D00008950F931F938C010E94351040E050E03B
:1030E000F80120813181821B930B0196228133816B
:1030F0002817390710F441E050E0CA011F910F91E1
:1031000008950F931F938C010E943510F80191834D
:1031100080831F910F9108950F931F938C01FC01E1
:10312000738362830E943510F801918380831F911D
:103130000F910895FC01118210820895FC01808195
:1031400091810895CF93DF93EC01AB012881398100
:1031500021153105D1F0F901A0E0B0E014C0E41769
:10316000F50761F480819181109719F49983888320
:1031700002C08D939C931182108207C0DF01808171
:1031800091819C01F901309751F7FA011182108267
:1031900088819981009751F0FC01CF010190F08165
:1031A000E02D3097D1F7FC01009719F4598348833B
:1031B00002C051834083DF91CF910895CF93DF9375
:1031C000EC01AB012881398121153105D1F0F901DC
:1031D000A0E0B0E014C0E417F50761F480819181AC
:1031E000109719F49983888302C08D939C93118260
:1031F000108207C0DF01808191819C01F901309725
:1032000051F788819981FA0191838083598348839A
:10321000DF91CF910895CF93DF93EC01288139811D
:1032200021153105D1F0F901A0E0B0E014C0E61796
:10323000F70761F480819181109719F4998388834D
:1032400002C08D939C931182108207C0DF018081A0
:1032500091819C01F901309751F7DF91CF91089549
:10326000FC010190F081E02D20E030E005C02F5FEF
:103270003F4F0190F081E02D3097C9F7C9010895C3
:10328000FC01009719F420E030E002C02081318178
:10329000C9010895EF92FF920F931F93CF93DF938D
:1032A0007C018A01FC0180819181009729F08B3497
:1032B000910509F04BC01AC083E696E00E949E1863
:1032C000EC0109C06C817D81CE0102960E94910DB6
:1032D0000990D881C02D2097A9F781E080936506D9
:1032E0008BE490E0F7019183808302C0683811F08D
:1032F00081E030C083E696E00E949E18EC0123C076
:10330000CE01029608171907D9F4BE0183E696E0AC
:103310000E940B190091DF041091E0048A859B85BF
:103320009093E0048093DF04EC85FD85309719F0DD
:103330008E859F8509951093E0040093DF04D0CF1C
:103340000990D881C02D2097D9F6CACFF7011182F4
:10335000108283E0DF91CF911F910F91FF90EF904A
:103360000895CF93DF93EC0180916506882329F0BF
:10337000CE0102960E94990C04C01F821E821986FB
:103380001886BE0183E696E00E940B19DF91CF916B
:1033900008950F931F93CF93DF93EC010091DF0407
:1033A0001091E0041B870A875D874C873F872E8733
:1033B00080916506882379F083ED93E09093E00493
:1033C0008093DF04CE0102960E94910D1093E004D9
:1033D0000093DF0402C07D836C83BE0183E696E028
:1033E0000E940B19BE0183E696E00E94A218DF91AD
:1033F000CF911F910F9108950F931F93CF93DF9358
:10340000EC0180916506882391F00091DF04109112
:10341000E00483ED93E09093E0048093DF04CE0119
:1034200002960E94860D1093E0040093DF04BE0113
:1034300083E696E00E940B19BE0183E696E00E94A7
:10344000A218DF91CF911F910F91089510926506F8
:1034500083E696E00E949A1860E070E083ED93E0C6
:103460000E94150C0895A0916606B091670610970A
:10347000C1F0109267061092660614966D917C91C9
:1034800015971296ED91FC911397CD010995E09156
:103490006606F0916706309721F0808191810E9445
:1034A000DC4008950E94C2400895AF92BF92CF922F
:1034B000DF92EF92FF920F931F93FC01A080B180E7
:1034C000C280D380E480F580068117810E9442107B
:1034D000EA0CFB1C0C1D1D1DE61AF70A080B190B44
:1034E000B701C8011F910F91FF90EF90DF90CF902F
:1034F000BF90AF900895EF92FF920F931F938C01AE
:103500000E944210E0E0F0E0D80114962D913D9128
:103510004D915C911797ED90FD900D911C91621B60
:10352000730B840B950B6E197F09800B910B6F5FEA
:103530007F4F8F4F9F4710F4E1E0F0E0CF011F91E4
:103540000F91FF90EF9008950F931F938C01FC0152
:1035500044835583668377830E944210F801608319
:103560007183828393831F910F9108950E94380283
:103570000895AC0130916C06832F90E08417950775
:103580009CF020E3231B8091680690916906820FCE
:10359000911D840F951F8138910530F4341B3093B1
:1035A0006C0621E030E002C020E030E0C90108955F
:1035B00040916806509169069C014817590718F414
:1035C00020E030E012C080916A0690916B06820F75
:1035D000931F90936B0680936A06421B530B509384
:1035E00069064093680621E030E0C9010895909390
:1035F000690680936806089580916A0690916B062B
:10360000C0962091DB033091DC03280F391FC901DC
:10361000089580916C062091DB033091DC03280F24
:10362000311DC901089540E050E08091DB03909185
:10363000DC03C09620916D0630916E06281739077D
:1036400011F041E050E0CA01089580916D0690911B
:103650006E0608958091680690916906089580E34A
:1036600090916C06891B2091680630916906280F9D
:10367000311DC9010895E82FF0E0EE0FFF1FE95357
:10368000FD4E7183608381E090E00895E82FF0E0C3
:10369000EE0FFF1FE953FD4E808191810895282F81
:1036A00030E043E0220F331F4A95E1F729513E4EA7
:1036B000C901089590E053E0880F991F5A95E1F7EA
:1036C00089519E4E0E94D11681E090E00895E7EC6A
:1036D000F2E11192119282E1E73FF807D1F76CE92C
:1036E00073E087EA92E10E94D1166CE973E08FEAF9
:1036F00092E10E94D1166CE973E087EB92E10E949F
:10370000D1166CE973E08FEB92E10E94D116089517
:1037100010926B0610926A06109269061092680663
:1037200080E380936C068091DB039091DC03C0966C
:1037300090936E0680936D060E94671B0895A7EC18
:10374000B2E1FC0180E301900D928150E1F7A7EA1C
:10375000B2E1FB0180E201900D928150E1F7089502
:10376000DC01E7ECF2E180E301900D928150E1F79A
:10377000DB01E7EAF2E180E201900D928150E1F78E
:1037800008950F931F93CF93DF93EC0180916C0604
:10379000482F50E08091680690916906C096841B7E
:1037A000950B8138910518F020E030E032C000E33D
:1037B00010E09801241B350B8091DB039091DC0312
:1037C000840F951FA901BC01CE010E948002809147
:1037D0006C06081B11090C0F1D1F20916D063091FE
:1037E0006E0680916A0690916B06280F391F4091F2
:1037F000680650916906B901C8010E9480022091B3
:10380000680630916906205D3F4F80916C06281B49
:103810003109C901DF91CF911F910F9108950F9345
:103820001F9320916C0630E000E310E0B801621BAA
:10383000730BE091DB03F091DC03E20FF31FAB01AC
:10384000BF010E94800280916C06081B1109C8010B
:103850001F910F910895EF92FF920F931F93F82EEF
:10386000E92E162F072F0E94881B212F302FC90108
:103870008C018138910510F000E810E0A8016F2D4F
:103880007E2D80916D0690916E060E9480021093AD
:10389000690600936806C8011F910F91FF90EF9091
:1038A00008951F93CF93DF93EC01BC018DED93E05E
:1038B0000E94D752892B71F0FE0161917191CF0165
:1038C0000E942B1CCE54DF4FBE01CE01C0970E9438
:1038D0009F1B1EC0BE0185EE93E00E94D752892B2C
:1038E000B9F00E94881B688179818A819B810E943E
:1038F0002B1C8CA990E00E94B91A1CA90E94091BDC
:103900009E012C5F3F4F412F50E0B9010E94800281
:10391000DF91CF911F910895CF93DF93EC01BC010C
:103920008DED93E00E94D752892B21F0BE018DEDE1
:1039300093E00AC0BE0185EE93E00E94D752892B26
:1039400029F0BE0185EE93E00E94A952DF91CF914C
:1039500008950F931F93CF93DF930E94131B892B1E
:10396000B1F085EE93E00E947B52EC01009769F084
:103970000E942A1B998388830E94251B9B838A832C
:10398000CE0104960E940F1C8CAB8E0115C08DEDEC
:1039900093E00E947B52EC018C01009769F0029643
:1039A0000E94C11B99838883BE016E547F4FCE0154
:1039B0008E579F4F0E94B01BC801DF91CF911F917E
:1039C0000F9108958DED93E00E94FA5285EE93E0F9
:1039D0000E94FA520895CF93DF939091FE08A92F89
:1039E000B0E03091071320E02A1B3B0B90910813A5
:1039F000290F311DA901480F511DEBE0F3E1708142
:103A000060E08181EB01C80FD11D4C0F5D1F4C1789
:103A10005D0710F44F5F5F4F329683E1EA32F8079B
:103A200070F383E1EA32F80749F4908180E0480FAF
:103A3000591F4817590710F44F5F5F4FFD01E55DAF
:103A4000FC4E215030402E0F3F1F0EC0708160E0B1
:103A50008181DB01A80FB11D4A0F5B1F4A175B076D
:103A600010F44F5F5F4F3296E217F30778F3E217D7
:103A7000F30751F4908180E0480F591F4817590708
:103A800018F44F5F5F4F06C04115510519F42FEF31
:103A90003FEF02C0342F252FC901DF91CF91089548
:103AA0008AE30E94EB1C089581E10E94EB1C0895BB
:103AB000282F892F922F0895EF92FF920F931F9333
:103AC0009C0144275527F22EE32E00E010E0362F0C
:103AD000272F40E050E0A90133272227E22AF32ACA
:103AE000042B152BB701C8011F910F91FF90EF9088
:103AF000089582E08093FF08A091FE082A2F30E00D
:103B0000F901E55DFC4E8181682F70E043E0660FAE
:103B1000771F4A95E1F7695F7F4F42E0285D3F4F8D
:103B20003CC0F901E80FF91FED5FFC4E808188234E
:103B300019F0813019F42EC04F5F2FC090E0807CC7
:103B400090708038910549F0803C910549F08034AF
:103B5000910501F54093FF0809C04093FF0808C094
:103B60004093FF0880911B138F3F11F481E008956B
:103B7000242F30E040E050E02A0F311D411D511D3F
:103B8000285D3F4F4F4F5F4F62E084E00E94492421
:103B900082E0089581818E5F480F842F90E068173E
:103BA00079070CF0BECF4093FF0880E00895EF92B4
:103BB000FF920F931F93CF93DF93843009F4C7C212
:103BC0002FE333E130931D1820931C183093FA1221
:103BD0002093F912853019F5E0911A18F0911B180D
:103BE00080899189892B09F420C310921F181092A3
:103BF0001E18C9010C9790931D1880931C18909360
:103C0000FA128093F912109225181092241810922B
:103C1000F8121092F71288E08093171896C2E90103
:103C2000EC9780910313807F803609F0FEC290915B
:103C3000071380E020910813AC01420F511D9A0137
:103C40008091F7129091F8128417950708F4EDC24D
:103C5000285D3F4F3093F8122093F71280910B1399
:103C60008F3F09F4E2C2CE0148960E943336892B79
:103C700009F018C1CE0148960E949935892B09F0A8
:103C800011C120911B132F3F09F48FC02E3F29F43F
:103C900080911C13803809F488C080910B138E3FEB
:103CA00029F480910C13803809F47FC080910B13A4
:103CB00090910C13892B59F580910D1390910E134F
:103CC000892B29F580910F1390911013892BF9F40A
:103CD0008091111390911213892BC9F480911313C1
:103CE00090911413892B99F48091151390911613C8
:103CF000892B69F48091171390911813892B39F44B
:103D00008091191390911A13892B09F44EC0809158
:103D10001B1390911C13892B51F580911D139091C9
:103D20001E13892B21F580911F1390912013892B4D
:103D3000F1F48091211390912213892BC1F4809189
:103D4000231390912413892B91F480912513909142
:103D50002613892B61F48091271390912813892BC6
:103D600031F48091291390912A130197F1F08091F9
:103D7000F7129091F8128150954038F020E035E02C
:103D800040E050E060E082E00AC080910A13823097
:103D900048F420E030E040E050E060E083E00E9442
:103DA00049244BC281508F8348C280910B138E3FB0
:103DB00009F03BC280910C13803809F036C2809123
:103DC0000B1390910C13892B59F580910D13909141
:103DD0000E13892B29F580910F1390911013892BC5
:103DE000F9F48091111390911213892BC9F48091E9
:103DF000131390911413892B99F4809115139091BA
:103E00001613892B69F48091171390911813892B3D
:103E100039F48091191390911A13892B09F405C272
:103E200080911B1390911C13892B59F580911D13C0
:103E300090911E13892B29F580911F1390912013C7
:103E4000892BF9F48091211390912213892BC9F4C5
:103E50008091231390912413892B99F48091251339
:103E600090912613892B69F4809127139091281340
:103E7000892B39F48091291390912A13019709F421
:103E8000D4C12F3F09F4D1C18BE193E10E94CF341B
:103E9000882309F0CAC120E030E040E050E062E051
:103EA00081E07DCF89E093E19093191880931818F1
:103EB0001092FE081092FD08E0911818F091191860
:103EC00080818C3209F4B1C18D3240F4813109F422
:103ED000ABC08B32D1F1882351F05EC08B3309F433
:103EE000A4C18C3351F08A3309F056C05FC0809171
:103EF000FD0880FD51C0816009C08091FD0881FFEF
:103F000004C086FD49C0806401C082608093FD08C2
:103F10000E94791D813009F488C1813018F0823007
:103F200059F68BC18091FE08E82FF0E0E55DFC4E6C
:103F3000F0931918E0931818885F9181990F990FE1
:103F4000990F890F8093FE08B7CF8091FD0882FDFD
:103F500023C084608093FD089091FE08692F70E073
:103F6000FB01E55DFC4E8381882349F0665D7F4F50
:103F70009B01442737FD4095542F60E015C0F09316
:103F80001918E0931818985F8181880F880F880F9F
:103F9000980F9093FE0890CFE350F3419F01442780
:103FA00037FD4095542F61E084E0F9CE0E94501D0A
:103FB0008F5F9F4F09F039C1E091FE08F0E0ED5F9F
:103FC000FC4E80A50E94F721E091FE08F0E0ED5F35
:103FD000FC4E80A58638E1F0873838F48138C1F08E
:103FE0008538B1F08038A1F410C0883841F08838A5
:103FF00018F08B3969F406C00E9413270DC00E9487
:1040000019250AC00E94544C07C00E94DC2304C03A
:104010001092F8121092F7128091F7129091F81204
:10402000892B09F402C109C18091F7129091F8120D
:10403000C0979093F8128093F71283E393E19093E3
:104040001D1880931C18E091FE08F0E0E55DFC4E21
:1040500086819781892B31F00E94541D8F5F9F4F7D
:1040600009F0E3C08091FE08082F10E0055D1C4EAA
:10407000F801E280F380E114F10409F4D6C086E28D
:1040800098E190931B1880931A1840C088899989E9
:104090000097B9F1E816F906A1F52A893B8921159F
:1040A000310531F0F801808191818217930749F53C
:1040B00088819981892BE1F48A819B81892BC1F4C4
:1040C0008C819D81892BA1F48E819F81892B81F424
:1040D00088859985892B61F48A859B85892B41F494
:1040E0008C859D85892B21F48E859F85892BC1F038
:1040F00040E150E0BE018BE093E10E947302009723
:1041000079F06996D0931B18C0931A18C0911A18A9
:10411000D0911B18F8E1CC3BDF0708F4B7CF85C07E
:1041200010921F1810921E1882E08093171883E3D4
:1041300093E190931D1880931C189093FA1280932A
:10414000F91210922518109224180E94D021209163
:104150002418309125182115310509F466C0C901CC
:10416000C0969093F8128093F712285F3F4F3093D8
:104170000713885280930813A0911A18B0911B1846
:1041800054968C91549780930A1381E1809309137C
:10419000E091FE08F0E0E55DFC4E34832583178254
:1041A000168250968D919C9151979183808352965F
:1041B0008D919C91539793838283CBE1D3E1FD0151
:1041C00080E1019009928150E1F76BE173E18BE0AE
:1041D00093E10E9471338FE393E190931D188093D4
:1041E0001C188091FE08C82FD0E0C55DDC4E0E94EF
:1041F000541D809590959F838E838091FE08E82FB3
:10420000F0E0E55DFC4E86819781892B21F48FEFEC
:104210009FEF9783868380E68093031310920413A5
:10422000109206131092051308C01092F812109203
:10423000F7121092FE081092FD0810921718DF91E5
:10424000CF911F910F91FF90EF9008950F931F93BF
:10425000CF93DF938C012091010930910209C9E1CC
:10426000D0E02F5F3F4F8DE72030380710F020E07F
:1042700030E1522F432FA0E011C08A2F90E08C9F95
:10428000F0018D9FF00D9C9FF00D1124EA5DF74E1B
:1042900080899189AF5F8417950719F3A63069F774
:1042A00020930109309302091092000940E0A9E12E
:1042B000B0E01CC0542F5F5F842F90E08A9FF00114
:1042C0008B9FF00D9A9FF00D1124EA5DF74E8089C7
:1042D0009189892B51F44093000989E1489FD001CD
:1042E0001124AA5DB74E49F427C0452F463010F37C
:1042F00040930009A0E0B0E01FC050963C93509757
:1043000051962C93519753967C936E935297011527
:10431000110531F480E1ED0119928A95E9F707C0A2
:10432000ED01F80180E1019009928150E1F780915F
:10433000D41854968C935497CD01DF91CF911F914F
:104340000F9108950E94CF3980E094E09093020984
:104350008093010920E049E150E00EC0822F90E0F7
:10436000849FF001859FF00D949FF00D1124EA5D6C
:10437000F74E118A108A2F5F263080F320930009B0
:104380000895E0910B09F0910C09309711F480E049
:1043900008950995089590930C0980930B09089549
:1043A00080911E1890911F18009719F0FC01B89683
:1043B00005C0E0911A18F0911B18759680819181C3
:1043C000009731F0428153816091BC180E94060C25
:1043D000089540E050E062E08DEE93E00E94060C0C
:1043E0001092F8121092F7121092FE080895DF93BF
:1043F000CF930F92CDB7DEB789838091201890912B
:104400002118009739F0AE014F5F5F4F6091BD18E2
:104410000E94060C0F90CF91DF9108950F931F9388
:10442000CF93DF938091F7129091F812009709F4DF
:10443000C4C08150954008F0B1C00BE113E18091F8
:104440001B1390911C13892B59F580911D1390918A
:104450001E13892B29F580911F1390912013892B0E
:10446000F9F48091211390912213892BC9F4809142
:10447000231390912413892B99F480912513909103
:104480002613892B69F48091271390912813892B87
:1044900039F48091291390912A13892B09F47EC055
:1044A00080911B138F3F09F47EC08BE193E10E9442
:1044B000CF34882379F48BE193E10E948E34009706
:1044C00031F40E94F0368C01009721F467C08C0112
:1044D0000D5E1F4FC8010E94D236EC010097B1F566
:1044E00020E040E060E070E0C8010E941D38EC016F
:1044F000009709F453C08BE093E10E943336AE017C
:104500004F5F5F4F892B29F060E070E08BE093E113
:1045100004C060E070E080E090E00E94612660915D
:10452000DD187091DE188091DF189091E01828EE68
:1045300033E040E050E00E946C55BA01A901CE0181
:1045400081960E94A41A81E08BA72DC08DA5882397
:10455000A1F1823059F483E08DA745E050E060E09E
:1045600070E0CE0149960E94A41A1BA66091DD1846
:104570007091DE188091DF189091E01828EE33E0FA
:1045800040E050E00E946C55BA01A901CE0181962D
:104590000E94A41ACE0141960E94C1211092F812E5
:1045A0001092F7120AC080E090E00E94C1211092A0
:1045B000F8121092F7121092FE08DF91CF911F911E
:1045C0000F9108950F931F93CF93DF938C01EA010E
:1045D000FC0180819181009729F08C50934009F073
:1045E0007AC019C00E94970A8093BC180E94970A4B
:1045F0008093BD186EE370E083E099E00E94910D16
:104600000E94A2210E944D438CE093E0F801918327
:10461000808381E064C06230C1F1633018F461309E
:1046200099F728C0673819F0683871F710C0E6E2CA
:10463000F8E108C0858996898C179D0711F4118AC5
:10464000108A799628E1EC3BF207A1F7DDCF89E0EB
:104650004330580719F4CA010E94470CEAE1CF36EB
:10466000DE0791F6CE010E94470C892B69F20E9469
:10467000BE382EC04115510539F250931B18409396
:104680001A1885E00E94D71D23C08091F7129091DF
:10469000F812892B09F4B8CF80910913863071F490
:1046A0008091381381FF0AC083E099E00E94470C93
:1046B000892B21F083E099E00E947B0D81E00E942C
:1046C000D71D8091F7129091F812892B09F49CCF95
:1046D0000E940E2299CFF8011182108283E0DF91AF
:1046E000CF911F910F910895CF93DF93EA010E941C
:1046F0002621FC01009741F08091DF049091E004B5
:10470000968B858BD08FC78BCF01DF91CF9108958A
:10471000EF92FF920F931F93CF93DF93F62EE42E29
:10472000890120E6209303131092041310920613BC
:10473000109205132AE3209309132091D418209393
:104740000A130C5F1F4F212F332727FD3A95045082
:10475000104020930713202F2C5F20930813ABE108
:10476000B3E1FC0180E101900D928150E1F76BE132
:1047700073E18BE093E10E9471338091FE08C82FB2
:10478000D0E0C55DDC4EF882E9821B821A820E946D
:10479000501D809590959B838A83045D1F4F1093D5
:1047A000F8120093F7120E940E22DF91CF911F9111
:1047B0000F91FF90EF90089523E033E18091D4189A
:1047C00080930A1380911B138F3F81F4D90158966F
:1047D000F901389680E101900D928150E1F76BE18B
:1047E00073E18BE093E10E9471331BC0ADE0B9E04F
:1047F000F901389680E101900D928150E1F7EBE0EC
:10480000F3E1DF01509680E10D9001928150E1F7D4
:10481000ABE1B3E1EDE0F9E080E101900D92815070
:10482000E1F76091FE08662301F18AE380930913A2
:1048300070E04091F7125091F812461B570B5093BD
:10484000F8124093F7124852504050930713485DB6
:104850005F4F842F8852809308134C525040615D03
:104860007C4E8FE293E10E9489021092FE0881E85B
:1048700080932B1310922C1310922E1310922D1341
:104880000E94501D8095909590932E1380932D1328
:104890000895CF92DF92EF92FF920F931F93CF93E1
:1048A000DF93D82EC62E79018A011092FE088091DE
:1048B00009138A3321F480912B1387FF7AC0ADE06E
:1048C000B9E0EBE1F3E180E101900D928150E1F775
:1048D0008091F7129091F812C0969093F8128093FD
:1048E000F7128150954030F080E095E09093F812F7
:1048F0008093F7124091F7125091F81240535040B4
:1049000063E073E183E393E10E94890280E6809390
:1049100003131092041310920613109205138AE3E6
:10492000809309138091D41880930A1380910B13FC
:1049300090910C13892B51F580910D1390910E13CA
:10494000892B21F580910F1390911013892BF1F48D
:104950008091111390911213892BC1F4809113133C
:1049600090911413892B91F4809115139091161343
:10497000892B61F48091171390911813892B31F4CE
:104980008091191390911A13892B99F0EBE1F3E1BF
:10499000DF01509780E10D9001928150E1F7809105
:1049A0000D098F3F59F484E0D81619F422E0C2169D
:1049B00029F01092F8121092F71232C06DE079E0EF
:1049C0008BE093E10E947133E091FE08CE2FD0E09E
:1049D000FE01E55DFC4ED082C182C801B7010E9494
:1049E0005C1DC15DDC4E688379838A839B838091E3
:1049F000F7129091F812889790930713889688522F
:104A0000809308138091FE08C82FD0E0C55DDC4E6E
:104A10001B821A820E94501D809590959B838A83E9
:104A2000DF91CF911F910F91FF90EF90DF90CF908A
:104A30000895DF92EF92FF920F931F93CF93DF932E
:104A40009091FE08E92FF0E0DF01A15DBC4EFC90E3
:104A500080910A138F3F09F00EC1E55DFC4E818104
:104A6000882309F008C114968C9114978F3F09F49C
:104A700002C120E4D22EDF20F6FE05C080911B1378
:104A80008F3F09F4F8C084E180931D0910921F093B
:104A900010921E09C091F712D091F81240E050E038
:104AA00064E1292F30E0245D3F4F15C0FC01ED5F2C
:104AB000FC4E9181992339F450931F0940931E09AC
:104AC00060931D09D8C08081823009F4AF01990F2D
:104AD000990F990F690FC901860F911D8C179D07BA
:104AE00028F350931F0940931E0960931D09CD01BF
:104AF00004960E943336FC01909325098093240983
:104B0000009741F08189882309F0B5C0CF010E9448
:104B1000F235B1C08091FE0890E08D5C9C4E0E9401
:104B2000D2368C019093210980932009009709F4D3
:104B3000A2C0C0911E09D0911F09209711F420E056
:104B40000AC0BC016F5E7F4F48E050E0CE01029684
:104B50000E947302282F80E8E82EEF20F80185A537
:104B6000882369F5209709F486C0D8015196FE0183
:104B7000329688E001900D928150E1F7C0912009B2
:104B8000D0912109DD20C1F081E08DA71BA66091A5
:104B9000D9187091DA188091DB189091DC1828EE02
:104BA00033E040E050E00E946C55BA01A901CE010B
:104BB00049960E94A41A5AC082E08DA757C0F5FCFE
:104BC00009C0222339F0813009F055C082E0F80194
:104BD00085A751C0209749F0D8015196FE01329621
:104BE00088E001900D928150E1F7DD20E1F0009125
:104BF00020091091210981E0F80185A76091D91859
:104C00007091DA188091DB189091DC1828EE33E06F
:104C100040E050E00E946C55BA01A901C8014996D4
:104C20000E94A41A0EC080911E0990911F09892B21
:104C300041F0222331F0E0912009F091210982E036
:104C400085A7E0912009F091210984A5882371F0BE
:104C5000EE2061F48BE093E10E94B4369093230937
:104C600080932209009711F00E943F33E0912009C0
:104C7000F0912109E4A61092F8121092F712DF9138
:104C8000CF911F910F91FF90EF90DF900895CF93F8
:104C9000DF93FC01608382E08183EF012296ABEF1A
:104CA000B2E188E00D9009928150E1F7CF010A96B8
:104CB000FC0186E0DF011D928A95E9F7DF91CF9133
:104CC00008950F931F93CF93DF938C01EA01109205
:104CD000FE0880E6809303131092041310920613CB
:104CE000109205138AE3809309139FEF90930A13A0
:104CF000EBE1F3E161157105B9F490931B1382E0C8
:104D00008183138212821582148217821682118681
:104D10001086128681E0838794878D8585878E85AE
:104D20009F859787868707C0DF01FB0180E101909F
:104D30000D928150E1F787E880932B1310922C138A
:104D400010922F13109230131092311310923213CD
:104D5000A3E3B3E1FE0180E101900D928150E1F700
:104D600010920713CE010E943336892B01F50115ED
:104D7000110549F0ABE0B3E1F80180E101900D923B
:104D80008150E1F706C06BE173E18BE093E10E9493
:104D9000713388E2809308138091FE0890E061E00F
:104DA0008D5B9C4E0E94472680E590E025C01092C6
:104DB0000C1310920B1310920E1310920D131092ED
:104DC000101310920F1310921213109211131092CD
:104DD00014131092131310921613109215131092AD
:104DE00018131092171310921A131092191388E1C6
:104DF0008093081380E490E09093F8128093F71268
:104E00008091FE08C82FD0E0C55DDC4E1B821A825F
:104E10000E94501D809590959B838A83DF91CF914E
:104E20001F910F910895DF92EF92FF920F931F93BE
:104E3000CF93DF9380910A138F3F09F015C28091C1
:104E4000FE08E82FF0E0ED5FFC4E80A98F3F09F4EB
:104E50000BC281A5882309F007C210921F09109286
:104E60001E0984E180931D0942E0D42E89C0F90116
:104E7000ED5FFC4E8181882309F4F6C18081813089
:104E800009F06EC0F0931F09E0931E0980910B1387
:104E900090910C13892B59F580910D1390910E135D
:104EA000892B29F580910F1390911013892BF9F418
:104EB0008091111390911213892BC9F480911313CF
:104EC00090911413892B99F48091151390911613D6
:104ED000892B69F48091171390911813892B39F459
:104EE0008091191390911A13892B09F4BDC18BE09D
:104EF00093E10E94D236EC0190932109809320091E
:104F000060911E0970911F09009749F46E5F7F4FF1
:104F100022E040E08BE093E10E941D3821C031E1A6
:104F2000E32EF12CE80EF91E8B010E5F1F4F48E0B7
:104F300050E0B701C8010E947302009769F0D701E1
:104F4000F80188E001900D928150E1F7E09120098D
:104F5000F0912109D5A604C08DA5882309F4DDA60A
:104F600080911D09E091FE08F0E0ED5FFC4EE80F36
:104F7000F11D95A5990F990F990F980F90931D0901
:104F80008091FE08482F50E080911D099A01280F5A
:104F9000311D245D3F4F8091F7129091F812281730
:104FA000390708F464CFCA018D5C9C4E0E943336E9
:104FB000FC019093250980932409009709F454C1BA
:104FC00080910B1390910C13892B09F099C080915B
:104FD0000D1390910E13892B09F092C080910F133D
:104FE00090911013892B09F08BC08091111390912F
:104FF0001213892B09F084C080911313909114131C
:10500000892B09F07DC08091151390911613892B7F
:1050100009F076C08091171390911813892B09F02D
:105020006FC08091191390911A13892B09F068C0F1
:1050300080911B138F3F09F017C180911C138230A0
:1050400009F012C180911D1390911E13892B09F054
:105050000BC180911F1390912013892B09F004C17B
:105060008091211390912213892B09F0FDC080912A
:10507000231390912413892B09F0F6C080912513F6
:10508000882309F0F1C080912613813009F0ECC02B
:10509000809127138F3F09F0E7C08189882361F150
:1050A0008FEF92E090931C1380931B1310921E13AA
:1050B00010921D131092201310921F13109222139E
:1050C000109221131092241310922313109226137E
:1050D00010922513109228131092271380E091E06C
:1050E00090932A13809329136BE173E18BE093E192
:1050F0000E94713390E272C0CF010E94F235B4C0B9
:105100008BE093E10E943336892B09F0ADC080918A
:105110001B138F3F09F03FC080911C138230D9F5DB
:1051200080911D1390911E13892BA9F580911F1357
:1051300090912013892B79F580912113909122135E
:10514000892B49F58091231390912413892B19F50C
:10515000809125138823F9F4809126138130D9F4A6
:10516000809127138F3FB9F4EBE1F3E1DF01509712
:1051700080E10D9001928150E1F78091FE08E82FC7
:10518000F0E0ABE0B3E1ED5CFC4E80E101900D920C
:105190008150E1F722C08BE193E10E9433362091E8
:1051A0002409309125098217930709F05DC0EBE1CE
:1051B000F3E1DF01509780E10D9001928150E1F71A
:1051C0008091FE08E82FF0E0ABE0B3E1ED5CFC4E2F
:1051D00080E101900D928150E1F790E61092FE0877
:1051E00080E680930313109204131092061310921A
:1051F00005131092071388E2809308138AE38093C3
:1052000009138FEF80930A1388E880932B13109271
:105210002C1390932F13E0912409F0912509A3E317
:10522000B3E1319680E101900D928150E1F78091D8
:10523000FE0890E062E08D5B9C4E0E9447268091C4
:10524000FE08C82FD0E0C55DDC4E1B821A820E948A
:10525000501D809590959B838A8380E590E0909384
:10526000F8128093F71204C01092F8121092F712FD
:10527000DF91CF911F910F91FF90EF90DF900895F4
:105280001F93CF93DF93182FDB01FA01808192E007
:10529000892718969C911897981769F519969C91EB
:1052A00019978181981739F51A969C911A978281DE
:1052B000981709F51B969C911B9783819817D9F431
:1052C0001C969C911C9784819817A9F41D969C911B
:1052D0001D978581981779F41E969C911E9786815B
:1052E000981749F41F969C911F978781981719F476
:1052F00083E090E048C018968D919C911997892B76
:1053000051F51A968C911A97882329F51B968C9142
:105310001B978F3F01F51C968C911C978E3FD9F4FB
:105320001D968C911D978823B1F4E091570EF09152
:10533000580E1E968D919C911F979183808380912A
:10534000570E9091580E02969093580E8093570ED8
:1053500082E090E018C08091570E9091580E9C0109
:10536000E901FD01389688E0019009928150E1F74A
:105370008091570E9091580E08969093580E8093F6
:10538000570E81E090E002C0880F991F1A95E2F74E
:10539000DF91CF911F910895CF92DF92EF92FF920C
:1053A0000F931F93CF93DF93EC016901142F129594
:1053B0001F70042F0F701F3009F410E10F3009F433
:1053C00000E1112329F0412F50E0CE010E9480021C
:1053D000E02EFF24412F50E09701240F351F20318C
:1053E00031056CF480E190E0821B930B9E01240F49
:1053F000351FAC0160E070E0C9010E949B020023F0
:1054000019F1C02EDD249E012E193F09205F3F4F68
:105410006091570E7091580E402F50E0C9010E94C4
:105420008002023031F41B3020F48FEF8B878EEF37
:105430008C878091570E9091580E8C0D9D1D9093E6
:10544000580E8093570E06C0112321F0B601CE01ED
:105450000E944E34DF91CF911F910F91FF90EF90FA
:10546000DF90CF9008958F929F92AF92BF92CF928C
:10547000DF92EF92FF920F931F93DF93CF9300D0B1
:10548000CDB7DEB710922A09109228090E94FC1AA3
:10549000909327098093260987E49EE00E9469186B
:1054A000892B41F010922C0910922B091092420E78
:1054B0001092410EE0912609F0912709908180E039
:1054C0002181422F50E0482B592BCA018070987FD0
:1054D000892F9927803C910549F0803E9105D9F0AC
:1054E000CC24DD24992420E030E027C0AFEFCA2E81
:1054F000A7E0DA2EC422D522928180E0238130E019
:10550000282B392B809128098C5F809328099924B6
:105510008824839413C09480928180E0238130E0BA
:10552000282B392B7FEFC72E77E0D72EC422D52228
:10553000809128098B5F8093280988248091410EEF
:105540009091420E892BF9F0C114D10409F419C3CA
:1055500080912B0990912C09C816D90609F011C326
:105560008091450E9091460E8217930709F009C36A
:1055700088E10E944F1BBC0180EC98E10E94E2167A
:10558000892BD1F4FEC2C114D104B1F0D0922C0900
:10559000C0922B093093460E2093450E67E771E0C9
:1055A00087E49EE00E948C1888E10E944F1BBC019A
:1055B00080EC98E10E94D11690912809953009F469
:1055C00061C22091260930912709492F50E0F90145
:1055D000E40FF51F6081862F807E803609F037C288
:1055E000CA010296820F931F9093580E8093570E14
:1055F0002081E180E7FE05C001969093580E8093CC
:10560000570E422F50E0CA018870907024FD40C0B0
:10561000E091570EF091580E892B39F5AEE2B9E0C2
:10562000319683E001900D928150E1F7E091570EA1
:10563000F091580E90813496F093580EE093570EE7
:10564000292F26952695822F8F70806680932D09AD
:1056500020739295990F990F907C922B80912E092F
:105660008F70982B90932E093FC080E680932D0970
:105670009081892F8695869580739F70892B809362
:105680002E09818192819093300980932F091DC04A
:10569000892B09F5E091570EF091580E808186957F
:1056A00086958F70806680932D098081982F9695BE
:1056B000969590738295880F880F807C892B8093B4
:1056C0002E091092300910922F093396F093580E3C
:1056D000E093570E09C080E680932D0910922E09A1
:1056E0001092300910922F0964E0A62EB12CA4224A
:1056F000B52242FD0BC0E091570EF091580E8191FA
:1057000080933309F093580EE093570EFA01E3703B
:10571000F070309731F0EC5EFB4F8081809334095C
:105720000BC0E091570EF091580E8191809334098F
:10573000F093580EE093570E0E2D10E0C8018073C1
:10574000907044E0959587954A95E1F733E0F32E04
:10575000F822E6FE3AC0E7FC02C090E00BC0809160
:105760002809E0912609F0912709E80FF11D92819F
:1057700092959F70FF20A1F080914B0E813039F4FB
:1057800080914C0E891719F48BE49EE002C080E0F2
:1057900090E09093560E8093550E892B09F472C1B8
:1057A00088E10E944F1B9C01EF2DF0E0E750FC4F79
:1057B0004081FF2019F460E070E012C06091550E46
:1057C0007091560E6E5F7F4F0BC088E10E944F1B99
:1057D000EF2DF0E0EB50FC4F9C01408161E074E064
:1057E00085E399E00E94CC2923E0F22EFE20C80137
:1057F0008470907003FF20C0892B09F060C08FEF88
:10580000898382E08A838F2D8150823050F4E09129
:10581000570EF091580E81918A83F093580EE093C1
:10582000570EEF2DF0E0E350FC4F20E030E04081D8
:10583000BE016F5F7F4F3FC0892B91F1E7FC02C033
:1058400090E00AC080912809E0912609F09127098B
:10585000E80FF11D92819F7080914B0E813039F4D9
:1058600080914C0E891719F48BE49EE002C080E011
:1058700090E09093560E8093550E892B09F402C147
:1058800089E10E944F1BEF2DF0E0E750FC4F609143
:10589000550E7091560E6E5F7F4F9C0140810BC07C
:1058A00089E10E944F1BEF2DF0E0EB50FC4F9C0173
:1058B000408161E074E085E499E00E94CC29809108
:1058C0002A09885D80932A09AB2809F48DC0A0912C
:1058D000570EB091580E8C91887F803F09F084C09C
:1058E000EDE2F9E081E1809333092C91822F90E081
:1058F000837F9070813F910511F1823F91052CF4D7
:10590000803F910509F0BEC008C0823F910549F172
:10591000833F910509F0B6C037C011968D919C91D7
:105920001297909356098093550913968D919C91E7
:105930001497909358098093570915963CC0B896D0
:1059400011968D919C9112979093560980935509C9
:1059500013968C91139790E08050904192838383AB
:1059600011C011968C91119790E0805090419093C6
:10597000550981A712968D919C9113979093580980
:1059800080935709149617C0B89611968C91119769
:1059900082958F7090E080559F4090935509818348
:1059A00011968C91119790E08F70907080559F4068
:1059B000928383831296B093580EA093570E22FDC4
:1059C0000EC0E091570EF091580E819191919093F5
:1059D0005C0980935B09F093580EE093570E809119
:1059E0002A09885F80932A098091570E9091260991
:1059F000891B80932809C114D10471F410923109D4
:105A00000E942A1B90912A09985220912809921BE2
:105A1000980F909332090EC088ED9FEFC80ED91EE3
:105A2000D092310988E290E0C80ED91E8C2D8852A0
:105A30008093320980913309813121F580913109B8
:105A40009091320990935A09809359091BC061348F
:105A500009F097C0892F8F5F80932809ADE2B9E0E4
:105A6000F901E80FF11D88E201900D928150E1F7F4
:105A700080912809885D8093280980912A09885D92
:105A800080932A090E942A1B2091280930E082175E
:105A9000930708F476C00E942A1B40912809841BB2
:105AA00080932909292D30E093E0220F331F9A9526
:105AB000E1F790912A09290F311D235D364FE091BE
:105AC0002609F0912709E40FF11D482F50E0BF018E
:105AD000C9010E948002CD28D9F0882061F0209170
